{
  "_format": "hh-sol-artifact-1",
  "contractName": "Messenger",
  "sourceName": "contracts/Messenger.sol",
  "abi": [
    {
      "inputs": [
        {
          "internalType": "string",
          "name": "name",
          "type": "string"
        }
      ],
      "name": "CreateAccount",
      "outputs": [],
      "stateMutability": "nonpayable",
      "type": "function"
    },
    {
      "inputs": [
        {
          "internalType": "address",
          "name": "friend_key",
          "type": "address"
        },
        {
          "internalType": "string",
          "name": "name",
          "type": "string"
        }
      ],
      "name": "addFriend",
      "outputs": [],
      "stateMutability": "nonpayable",
      "type": "function"
    },
    {
      "inputs": [
        {
          "internalType": "address",
          "name": "pubkey",
          "type": "address"
        }
      ],
      "name": "checkUserExists",
      "outputs": [
        {
          "internalType": "bool",
          "name": "",
          "type": "bool"
        }
      ],
      "stateMutability": "view",
      "type": "function"
    },
    {
      "inputs": [],
      "name": "getAllAppUsers",
      "outputs": [
        {
          "components": [
            {
              "internalType": "string",
              "name": "name",
              "type": "string"
            },
            {
              "internalType": "address",
              "name": "accountAddress",
              "type": "address"
            }
          ],
          "internalType": "struct Messenger.AllUserStruct[]",
          "name": "",
          "type": "tuple[]"
        }
      ],
      "stateMutability": "view",
      "type": "function"
    },
    {
      "inputs": [],
      "name": "getMyFriendList",
      "outputs": [
        {
          "components": [
            {
              "internalType": "address",
              "name": "pubkey",
              "type": "address"
            },
            {
              "internalType": "string",
              "name": "name",
              "type": "string"
            }
          ],
          "internalType": "struct Messenger.friend[]",
          "name": "",
          "type": "tuple[]"
        }
      ],
      "stateMutability": "view",
      "type": "function"
    },
    {
      "inputs": [
        {
          "internalType": "address",
          "name": "pubkey",
          "type": "address"
        }
      ],
      "name": "getUser",
      "outputs": [
        {
          "internalType": "string",
          "name": "",
          "type": "string"
        }
      ],
      "stateMutability": "view",
      "type": "function"
    },
    {
      "inputs": [
        {
          "internalType": "address",
          "name": "friend_key",
          "type": "address"
        }
      ],
      "name": "readMessage",
      "outputs": [
        {
          "components": [
            {
              "internalType": "address",
              "name": "sender",
              "type": "address"
            },
            {
              "internalType": "uint256",
              "name": "timestamp",
              "type": "uint256"
            },
            {
              "internalType": "string",
              "name": "msg",
              "type": "string"
            }
          ],
          "internalType": "struct Messenger.message[]",
          "name": "",
          "type": "tuple[]"
        }
      ],
      "stateMutability": "view",
      "type": "function"
    },
    {
      "inputs": [
        {
          "internalType": "address",
          "name": "friend_key",
          "type": "address"
        },
        {
          "internalType": "string",
          "name": "_msg",
          "type": "string"
        }
      ],
      "name": "sendMessage",
      "outputs": [],
      "stateMutability": "nonpayable",
      "type": "function"
    }
  ],
  "bytecode": "0x608060405234801561001057600080fd5b50612091806100206000396000f3fe608060405234801561001057600080fd5b50600436106100885760003560e01c8063bd0f4d0d1161005b578063bd0f4d0d14610139578063db6dd4f114610157578063de6f24bb14610175578063ef6a4fe01461019157610088565b8063133f50f51461008d578063255e9c11146100bd5780633b9f708d146100ed5780636f77926b14610109575b600080fd5b6100a760048036038101906100a2919061119e565b6101ad565b6040516100b491906111e6565b60405180910390f35b6100d760048036038101906100d2919061119e565b610207565b6040516100e491906113cb565b60405180910390f35b61010760048036038101906101029190611452565b61037a565b005b610123600480360381019061011e919061119e565b6105f1565b60405161013091906114fc565b60405180910390f35b61014161070d565b60405161014e919061161d565b60405180910390f35b61015f610894565b60405161016c919061173e565b60405180910390f35b61018f600480360381019061018a9190611452565b6109db565b005b6101ab60048036038101906101a69190611760565b610be8565b005b600080600160008473ffffffffffffffffffffffffffffffffffffffff1673ffffffffffffffffffffffffffffffffffffffff16815260200190815260200160002060000180546101fd906117dc565b9050119050919050565b606060006102153384610dcc565b905060026000828152602001908152602001600020805480602002602001604051908101604052809291908181526020016000905b8282101561036e57838290600052602060002090600302016040518060600160405290816000820160009054906101000a900473ffffffffffffffffffffffffffffffffffffffff1673ffffffffffffffffffffffffffffffffffffffff1673ffffffffffffffffffffffffffffffffffffffff168152602001600182015481526020016002820180546102dd906117dc565b80601f0160208091040260200160405190810160405280929190818152602001828054610309906117dc565b80156103565780601f1061032b57610100808354040283529160200191610356565b820191906000526020600020905b81548152906001019060200180831161033957829003601f168201915b5050505050815250508152602001906001019061024a565b50505050915050919050565b610383336101ad565b6103c2576040517f08c379a00000000000000000000000000000000000000000000000000000000081526004016103b990611859565b60405180910390fd5b6103cb836101ad565b61040a576040517f08c379a0000000000000000000000000000000000000000000000000000000008152600401610401906118c5565b60405180910390fd5b8273ffffffffffffffffffffffffffffffffffffffff163373ffffffffffffffffffffffffffffffffffffffff1603610478576040517f08c379a000000000000000000000000000000000000000000000000000000000815260040161046f90611957565b60405180910390fd5b600015156104863385610e64565b1515146104c8576040517f08c379a00000000000000000000000000000000000000000000000000000000081526004016104bf906119c3565b60405180910390fd5b610517338484848080601f016020809104026020016040519081016040528093929190818152602001838380828437600081840152601f19601f82011690508083019250505050505050611036565b6105ec8333600160003373ffffffffffffffffffffffffffffffffffffffff1673ffffffffffffffffffffffffffffffffffffffff1681526020019081526020016000206000018054610569906117dc565b80601f0160208091040260200160405190810160405280929190818152602001828054610595906117dc565b80156105e25780601f106105b7576101008083540402835291602001916105e2565b820191906000526020600020905b8154815290600101906020018083116105c557829003601f168201915b5050505050611036565b505050565b60606105fc826101ad565b61063b576040517f08c379a000000000000000000000000000000000000000000000000000000000815260040161063290611a2f565b60405180910390fd5b600160008373ffffffffffffffffffffffffffffffffffffffff1673ffffffffffffffffffffffffffffffffffffffff1681526020019081526020016000206000018054610688906117dc565b80601f01602080910402602001604051908101604052809291908181526020018280546106b4906117dc565b80156107015780601f106106d657610100808354040283529160200191610701565b820191906000526020600020905b8154815290600101906020018083116106e457829003601f168201915b50505050509050919050565b6060600160003373ffffffffffffffffffffffffffffffffffffffff1673ffffffffffffffffffffffffffffffffffffffff168152602001908152602001600020600101805480602002602001604051908101604052809291908181526020016000905b8282101561088b57838290600052602060002090600202016040518060400160405290816000820160009054906101000a900473ffffffffffffffffffffffffffffffffffffffff1673ffffffffffffffffffffffffffffffffffffffff1673ffffffffffffffffffffffffffffffffffffffff1681526020016001820180546107fa906117dc565b80601f0160208091040260200160405190810160405280929190818152602001828054610826906117dc565b80156108735780601f1061084857610100808354040283529160200191610873565b820191906000526020600020905b81548152906001019060200180831161085657829003601f168201915b50505050508152505081526020019060010190610771565b50505050905090565b60606000805480602002602001604051908101604052809291908181526020016000905b828210156109d257838290600052602060002090600202016040518060400160405290816000820180546108eb906117dc565b80601f0160208091040260200160405190810160405280929190818152602001828054610917906117dc565b80156109645780601f1061093957610100808354040283529160200191610964565b820191906000526020600020905b81548152906001019060200180831161094757829003601f168201915b505050505081526020016001820160009054906101000a900473ffffffffffffffffffffffffffffffffffffffff1673ffffffffffffffffffffffffffffffffffffffff1673ffffffffffffffffffffffffffffffffffffffff1681525050815260200190600101906108b8565b50505050905090565b6109e4336101ad565b610a23576040517f08c379a0000000000000000000000000000000000000000000000000000000008152600401610a1a90611859565b60405180910390fd5b610a2c836101ad565b610a6b576040517f08c379a0000000000000000000000000000000000000000000000000000000008152600401610a6290611a2f565b60405180910390fd5b610a753384610e64565b610ab4576040517f08c379a0000000000000000000000000000000000000000000000000000000008152600401610aab90611ac1565b60405180910390fd5b6000610ac03385610dcc565b9050600060405180606001604052803373ffffffffffffffffffffffffffffffffffffffff16815260200142815260200185858080601f016020809104026020016040519081016040528093929190818152602001838380828437600081840152601f19601f8201169050808301925050505050505081525090506002600083815260200190815260200160002081908060018154018082558091505060019003906000526020600020906003020160009091909190915060008201518160000160006101000a81548173ffffffffffffffffffffffffffffffffffffffff021916908373ffffffffffffffffffffffffffffffffffffffff160217905550602082015181600101556040820151816002019081610bde9190611cbc565b5050505050505050565b60001515610bf5336101ad565b151514610c37576040517f08c379a0000000000000000000000000000000000000000000000000000000008152600401610c2e90611dda565b60405180910390fd5b60008282905011610c7d576040517f08c379a0000000000000000000000000000000000000000000000000000000008152600401610c7490611e46565b60405180910390fd5b8181600160003373ffffffffffffffffffffffffffffffffffffffff1673ffffffffffffffffffffffffffffffffffffffff1681526020019081526020016000206000019182610cce929190611e71565b506000604051806040016040528084848080601f016020809104026020016040519081016040528093929190818152602001838380828437600081840152601f19601f8201169050808301925050505050505081526020013373ffffffffffffffffffffffffffffffffffffffff1681525090806001815401808255809150506001900390600052602060002090600202016000909190919091506000820151816000019081610d7e9190611cbc565b5060208201518160010160006101000a81548173ffffffffffffffffffffffffffffffffffffffff021916908373ffffffffffffffffffffffffffffffffffffffff16021790555050505050565b60008173ffffffffffffffffffffffffffffffffffffffff168373ffffffffffffffffffffffffffffffffffffffff161015610e32578282604051602001610e15929190611f89565b604051602081830303815290604052805190602001209050610e5e565b8183604051602001610e45929190611f89565b6040516020818303038152906040528051906020012090505b92915050565b6000600160008373ffffffffffffffffffffffffffffffffffffffff1673ffffffffffffffffffffffffffffffffffffffff16815260200190815260200160002060010180549050600160008573ffffffffffffffffffffffffffffffffffffffff1673ffffffffffffffffffffffffffffffffffffffff168152602001908152602001600020600101805490501115610f05576000839050829350809250505b60005b600160008573ffffffffffffffffffffffffffffffffffffffff1673ffffffffffffffffffffffffffffffffffffffff1681526020019081526020016000206001018054905081101561102a578273ffffffffffffffffffffffffffffffffffffffff16600160008673ffffffffffffffffffffffffffffffffffffffff1673ffffffffffffffffffffffffffffffffffffffff1681526020019081526020016000206001018281548110610fc057610fbf611fb5565b5b906000526020600020906002020160000160009054906101000a900473ffffffffffffffffffffffffffffffffffffffff1673ffffffffffffffffffffffffffffffffffffffff1603611017576001915050611030565b808061102290612013565b915050610f08565b50600090505b92915050565b600060405180604001604052808473ffffffffffffffffffffffffffffffffffffffff168152602001838152509050600160008573ffffffffffffffffffffffffffffffffffffffff1673ffffffffffffffffffffffffffffffffffffffff16815260200190815260200160002060010181908060018154018082558091505060019003906000526020600020906002020160009091909190915060008201518160000160006101000a81548173ffffffffffffffffffffffffffffffffffffffff021916908373ffffffffffffffffffffffffffffffffffffffff160217905550602082015181600101908161112d9190611cbc565b50505050505050565b600080fd5b600080fd5b600073ffffffffffffffffffffffffffffffffffffffff82169050919050565b600061116b82611140565b9050919050565b61117b81611160565b811461118657600080fd5b50565b60008135905061119881611172565b92915050565b6000602082840312156111b4576111b3611136565b5b60006111c284828501611189565b91505092915050565b60008115159050919050565b6111e0816111cb565b82525050565b60006020820190506111fb60008301846111d7565b92915050565b600081519050919050565b600082825260208201905092915050565b6000819050602082019050919050565b61123681611160565b82525050565b6000819050919050565b61124f8161123c565b82525050565b600081519050919050565b600082825260208201905092915050565b60005b8381101561128f578082015181840152602081019050611274565b60008484015250505050565b6000601f19601f8301169050919050565b60006112b782611255565b6112c18185611260565b93506112d1818560208601611271565b6112da8161129b565b840191505092915050565b60006060830160008301516112fd600086018261122d565b5060208301516113106020860182611246565b506040830151848203604086015261132882826112ac565b9150508091505092915050565b600061134183836112e5565b905092915050565b6000602082019050919050565b600061136182611201565b61136b818561120c565b93508360208202850161137d8561121d565b8060005b858110156113b9578484038952815161139a8582611335565b94506113a583611349565b925060208a01995050600181019050611381565b50829750879550505050505092915050565b600060208201905081810360008301526113e58184611356565b905092915050565b600080fd5b600080fd5b600080fd5b60008083601f840112611412576114116113ed565b5b8235905067ffffffffffffffff81111561142f5761142e6113f2565b5b60208301915083600182028301111561144b5761144a6113f7565b5b9250929050565b60008060006040848603121561146b5761146a611136565b5b600061147986828701611189565b935050602084013567ffffffffffffffff81111561149a5761149961113b565b5b6114a6868287016113fc565b92509250509250925092565b600082825260208201905092915050565b60006114ce82611255565b6114d881856114b2565b93506114e8818560208601611271565b6114f18161129b565b840191505092915050565b6000602082019050818103600083015261151681846114c3565b905092915050565b600081519050919050565b600082825260208201905092915050565b6000819050602082019050919050565b6000604083016000830151611562600086018261122d565b506020830151848203602086015261157a82826112ac565b9150508091505092915050565b6000611593838361154a565b905092915050565b6000602082019050919050565b60006115b38261151e565b6115bd8185611529565b9350836020820285016115cf8561153a565b8060005b8581101561160b57848403895281516115ec8582611587565b94506115f78361159b565b925060208a019950506001810190506115d3565b50829750879550505050505092915050565b6000602082019050818103600083015261163781846115a8565b905092915050565b600081519050919050565b600082825260208201905092915050565b6000819050602082019050919050565b6000604083016000830151848203600086015261168882826112ac565b915050602083015161169d602086018261122d565b508091505092915050565b60006116b4838361166b565b905092915050565b6000602082019050919050565b60006116d48261163f565b6116de818561164a565b9350836020820285016116f08561165b565b8060005b8581101561172c578484038952815161170d85826116a8565b9450611718836116bc565b925060208a019950506001810190506116f4565b50829750879550505050505092915050565b6000602082019050818103600083015261175881846116c9565b905092915050565b6000806020838503121561177757611776611136565b5b600083013567ffffffffffffffff8111156117955761179461113b565b5b6117a1858286016113fc565b92509250509250929050565b7f4e487b7100000000000000000000000000000000000000000000000000000000600052602260045260246000fd5b600060028204905060018216806117f457607f821691505b602082108103611807576118066117ad565b5b50919050565b7f43726561746520616e206163636f756e74206669727374000000000000000000600082015250565b60006118436017836114b2565b915061184e8261180d565b602082019050919050565b6000602082019050818103600083015261187281611836565b9050919050565b7f55736572206973206e6f74207265676973746572656421000000000000000000600082015250565b60006118af6017836114b2565b91506118ba82611879565b602082019050919050565b600060208201905081810360008301526118de816118a2565b9050919050565b7f55736572732063616e6e6f7420616464207468656d6573656c7665732061732060008201527f667269656e640000000000000000000000000000000000000000000000000000602082015250565b60006119416026836114b2565b915061194c826118e5565b604082019050919050565b6000602082019050818103600083015261197081611934565b9050919050565b7f54686573652055736572732061726520616c726561647920667269656e647300600082015250565b60006119ad601f836114b2565b91506119b882611977565b602082019050919050565b600060208201905081810360008301526119dc816119a0565b9050919050565b7f55736572206973206e6f74207265676973746572656400000000000000000000600082015250565b6000611a196016836114b2565b9150611a24826119e3565b602082019050919050565b60006020820190508181036000830152611a4881611a0c565b9050919050565b7f596f7520617265206e6f7420667269656e64207769746820746865206769766560008201527f6e20757365720000000000000000000000000000000000000000000000000000602082015250565b6000611aab6026836114b2565b9150611ab682611a4f565b604082019050919050565b60006020820190508181036000830152611ada81611a9e565b9050919050565b7f4e487b7100000000000000000000000000000000000000000000000000000000600052604160045260246000fd5b60008190508160005260206000209050919050565b60006020601f8301049050919050565b600082821b905092915050565b600060088302611b727fffffffffffffffffffffffffffffffffffffffffffffffffffffffffffffffff82611b35565b611b7c8683611b35565b95508019841693508086168417925050509392505050565b6000819050919050565b6000611bb9611bb4611baf8461123c565b611b94565b61123c565b9050919050565b6000819050919050565b611bd383611b9e565b611be7611bdf82611bc0565b848454611b42565b825550505050565b600090565b611bfc611bef565b611c07818484611bca565b505050565b5b81811015611c2b57611c20600082611bf4565b600181019050611c0d565b5050565b601f821115611c7057611c4181611b10565b611c4a84611b25565b81016020851015611c59578190505b611c6d611c6585611b25565b830182611c0c565b50505b505050565b600082821c905092915050565b6000611c9360001984600802611c75565b1980831691505092915050565b6000611cac8383611c82565b9150826002028217905092915050565b611cc582611255565b67ffffffffffffffff811115611cde57611cdd611ae1565b5b611ce882546117dc565b611cf3828285611c2f565b600060209050601f831160018114611d265760008415611d14578287015190505b611d1e8582611ca0565b865550611d86565b601f198416611d3486611b10565b60005b82811015611d5c57848901518255600182019150602085019450602081019050611d37565b86831015611d795784890151611d75601f891682611c82565b8355505b6001600288020188555050505b505050505050565b7f5573657220616c72656164792065786973747300000000000000000000000000600082015250565b6000611dc46013836114b2565b9150611dcf82611d8e565b602082019050919050565b60006020820190508181036000830152611df381611db7565b9050919050565b7f557365726e616d652063616e6e6f7420626520656d7074790000000000000000600082015250565b6000611e306018836114b2565b9150611e3b82611dfa565b602082019050919050565b60006020820190508181036000830152611e5f81611e23565b9050919050565b600082905092915050565b611e7b8383611e66565b67ffffffffffffffff811115611e9457611e93611ae1565b5b611e9e82546117dc565b611ea9828285611c2f565b6000601f831160018114611ed85760008415611ec6578287013590505b611ed08582611ca0565b865550611f38565b601f198416611ee686611b10565b60005b82811015611f0e57848901358255600182019150602085019450602081019050611ee9565b86831015611f2b5784890135611f27601f891682611c82565b8355505b6001600288020188555050505b50505050505050565b60008160601b9050919050565b6000611f5982611f41565b9050919050565b6000611f6b82611f4e565b9050919050565b611f83611f7e82611160565b611f60565b82525050565b6000611f958285611f72565b601482019150611fa58284611f72565b6014820191508190509392505050565b7f4e487b7100000000000000000000000000000000000000000000000000000000600052603260045260246000fd5b7f4e487b7100000000000000000000000000000000000000000000000000000000600052601160045260246000fd5b600061201e8261123c565b91507fffffffffffffffffffffffffffffffffffffffffffffffffffffffffffffffff82036120505761204f611fe4565b5b60018201905091905056fea2646970667358221220939d20952e74c015bbf2ccae29af153bda98b0de680f65859fac08eccd7d90d664736f6c63430008120033",
  "linkReferences": {},
  "deployedLinkReferences": {}
}